{
  "contractName": "PayableHandshake",
  "abi": [
    {
      "constant": true,
      "inputs": [
        {
          "name": "",
          "type": "uint256"
        }
      ],
      "name": "pm",
      "outputs": [
        {
          "name": "payee",
          "type": "address"
        },
        {
          "name": "payer",
          "type": "address"
        },
        {
          "name": "value",
          "type": "uint256"
        },
        {
          "name": "state",
          "type": "uint8"
        },
        {
          "name": "deadline",
          "type": "uint256"
        }
      ],
      "payable": false,
      "stateMutability": "view",
      "type": "function"
    },
    {
      "constant": true,
      "inputs": [],
      "name": "resolveWindow",
      "outputs": [
        {
          "name": "",
          "type": "uint256"
        }
      ],
      "payable": false,
      "stateMutability": "view",
      "type": "function"
    },
    {
      "constant": true,
      "inputs": [],
      "name": "reviewWindow",
      "outputs": [
        {
          "name": "",
          "type": "uint256"
        }
      ],
      "payable": false,
      "stateMutability": "view",
      "type": "function"
    },
    {
      "anonymous": false,
      "inputs": [
        {
          "indexed": false,
          "name": "hid",
          "type": "uint256"
        },
        {
          "indexed": false,
          "name": "payee",
          "type": "address"
        },
        {
          "indexed": false,
          "name": "payer",
          "type": "address"
        },
        {
          "indexed": false,
          "name": "offchain",
          "type": "bytes32"
        }
      ],
      "name": "__init",
      "type": "event"
    },
    {
      "anonymous": false,
      "inputs": [
        {
          "indexed": false,
          "name": "hid",
          "type": "uint256"
        },
        {
          "indexed": false,
          "name": "offchain",
          "type": "bytes32"
        }
      ],
      "name": "__shake",
      "type": "event"
    },
    {
      "anonymous": false,
      "inputs": [
        {
          "indexed": false,
          "name": "hid",
          "type": "uint256"
        },
        {
          "indexed": false,
          "name": "offchain",
          "type": "bytes32"
        }
      ],
      "name": "__deliver",
      "type": "event"
    },
    {
      "anonymous": false,
      "inputs": [
        {
          "indexed": false,
          "name": "hid",
          "type": "uint256"
        },
        {
          "indexed": false,
          "name": "offchain",
          "type": "bytes32"
        }
      ],
      "name": "__withdraw",
      "type": "event"
    },
    {
      "anonymous": false,
      "inputs": [
        {
          "indexed": false,
          "name": "hid",
          "type": "uint256"
        },
        {
          "indexed": false,
          "name": "offchain",
          "type": "bytes32"
        }
      ],
      "name": "__reject",
      "type": "event"
    },
    {
      "anonymous": false,
      "inputs": [
        {
          "indexed": false,
          "name": "hid",
          "type": "uint256"
        },
        {
          "indexed": false,
          "name": "offchain",
          "type": "bytes32"
        }
      ],
      "name": "__accept",
      "type": "event"
    },
    {
      "anonymous": false,
      "inputs": [
        {
          "indexed": false,
          "name": "hid",
          "type": "uint256"
        },
        {
          "indexed": false,
          "name": "offchain",
          "type": "bytes32"
        }
      ],
      "name": "__cancel",
      "type": "event"
    },
    {
      "constant": false,
      "inputs": [
        {
          "name": "payer",
          "type": "address"
        },
        {
          "name": "value",
          "type": "uint256"
        },
        {
          "name": "deadline",
          "type": "uint256"
        },
        {
          "name": "offchain",
          "type": "bytes32"
        }
      ],
      "name": "init",
      "outputs": [],
      "payable": false,
      "stateMutability": "nonpayable",
      "type": "function"
    },
    {
      "constant": false,
      "inputs": [
        {
          "name": "payee",
          "type": "address"
        },
        {
          "name": "value",
          "type": "uint256"
        },
        {
          "name": "deadline",
          "type": "uint256"
        },
        {
          "name": "offchain",
          "type": "bytes32"
        }
      ],
      "name": "initByPayer",
      "outputs": [],
      "payable": true,
      "stateMutability": "payable",
      "type": "function"
    },
    {
      "constant": false,
      "inputs": [
        {
          "name": "hid",
          "type": "uint256"
        },
        {
          "name": "offchain",
          "type": "bytes32"
        }
      ],
      "name": "shake",
      "outputs": [],
      "payable": true,
      "stateMutability": "payable",
      "type": "function"
    },
    {
      "constant": false,
      "inputs": [
        {
          "name": "hid",
          "type": "uint256"
        },
        {
          "name": "offchain",
          "type": "bytes32"
        }
      ],
      "name": "deliver",
      "outputs": [],
      "payable": false,
      "stateMutability": "nonpayable",
      "type": "function"
    },
    {
      "constant": false,
      "inputs": [
        {
          "name": "hid",
          "type": "uint256"
        },
        {
          "name": "offchain",
          "type": "bytes32"
        }
      ],
      "name": "withdraw",
      "outputs": [],
      "payable": false,
      "stateMutability": "nonpayable",
      "type": "function"
    },
    {
      "constant": false,
      "inputs": [
        {
          "name": "hid",
          "type": "uint256"
        },
        {
          "name": "offchain",
          "type": "bytes32"
        }
      ],
      "name": "reject",
      "outputs": [],
      "payable": false,
      "stateMutability": "nonpayable",
      "type": "function"
    },
    {
      "constant": false,
      "inputs": [
        {
          "name": "hid",
          "type": "uint256"
        },
        {
          "name": "offchain",
          "type": "bytes32"
        }
      ],
      "name": "accept",
      "outputs": [],
      "payable": false,
      "stateMutability": "nonpayable",
      "type": "function"
    },
    {
      "constant": false,
      "inputs": [
        {
          "name": "hid",
          "type": "uint256"
        },
        {
          "name": "offchain",
          "type": "bytes32"
        }
      ],
      "name": "cancel",
      "outputs": [],
      "payable": false,
      "stateMutability": "nonpayable",
      "type": "function"
    }
  ],
  "bytecode": "0x606060405262093a8060005562127500600155341561001d57600080fd5b6114498061002c6000396000f3006060604052600436106100af576000357c0100000000000000000000000000000000000000000000000000000000900463ffffffff1680631506ae59146100b4578063209fd9711461010157806321cf39ee146101ba5780635203dcda146101e35780636be1320b14610213578063867d0dd4146102435780639ca4218f1461029b578063a8d2021a146102c4578063b09b2f85146102f4578063d9b42a7f14610319578063eafb64d514610349575b600080fd5b6100ff600480803573ffffffffffffffffffffffffffffffffffffffff1690602001909190803590602001909190803590602001909190803560001916906020019091905050610379565b005b341561010c57600080fd5b6101226004808035906020019091905050610641565b604051808673ffffffffffffffffffffffffffffffffffffffff1673ffffffffffffffffffffffffffffffffffffffff1681526020018573ffffffffffffffffffffffffffffffffffffffff1673ffffffffffffffffffffffffffffffffffffffff16815260200184815260200183600581111561019c57fe5b60ff1681526020018281526020019550505050505060405180910390f35b34156101c557600080fd5b6101cd6106d3565b6040518082815260200191505060405180910390f35b34156101ee57600080fd5b6102116004808035906020019091908035600019169060200190919050506106d9565b005b341561021e57600080fd5b610241600480803590602001909190803560001916906020019091905050610833565b005b341561024e57600080fd5b610299600480803573ffffffffffffffffffffffffffffffffffffffff169060200190919080359060200190919080359060200190919080356000191690602001909190505061098e565b005b34156102a657600080fd5b6102ae610bd5565b6040518082815260200191505060405180910390f35b34156102cf57600080fd5b6102f2600480803590602001909190803560001916906020019091905050610bdb565b005b610317600480803590602001909190803560001916906020019091905050610d78565b005b341561032457600080fd5b610347600480803590602001909190803560001916906020019091905050610fbc565b005b341561035457600080fd5b610377600480803590602001909190803560001916906020019091905050611110565b005b6103816112f3565b83341015151561039057600080fd5b84816000019073ffffffffffffffffffffffffffffffffffffffff16908173ffffffffffffffffffffffffffffffffffffffff168152505033816020019073ffffffffffffffffffffffffffffffffffffffff16908173ffffffffffffffffffffffffffffffffffffffff16815250508381604001818152505060018160600190600581111561041c57fe5b9081600581111561042957fe5b8152505060018302420181608001818152505060028054806001018281610450919061135a565b9160005260206000209060050201600083909190915060008201518160000160006101000a81548173ffffffffffffffffffffffffffffffffffffffff021916908373ffffffffffffffffffffffffffffffffffffffff16021790555060208201518160010160006101000a81548173ffffffffffffffffffffffffffffffffffffffff021916908373ffffffffffffffffffffffffffffffffffffffff1602179055506040820151816002015560608201518160030160006101000a81548160ff0219169083600581111561052257fe5b0217905550608082015181600401555050507fbde301cda1a53e4996e7061649145cdb878697bd928c5344ad670f867666807d600160028054905003863385604051808581526020018473ffffffffffffffffffffffffffffffffffffffff1673ffffffffffffffffffffffffffffffffffffffff1681526020018373ffffffffffffffffffffffffffffffffffffffff1673ffffffffffffffffffffffffffffffffffffffff168152602001826000191660001916815260200194505050505060405180910390a17f6a5ee55c9df2daa4375d2b5e4ec8b9e5662f1863207bcbe6e38c6f5fe3c24300600160028054905003836040518083815260200182600019166000191681526020019250505060405180910390a15050505050565b60028181548110151561065057fe5b90600052602060002090600502016000915090508060000160009054906101000a900473ffffffffffffffffffffffffffffffffffffffff16908060010160009054906101000a900473ffffffffffffffffffffffffffffffffffffffff16908060020154908060030160009054906101000a900460ff16908060040154905085565b60015481565b816002818154811015156106e957fe5b906000526020600020906005020160010160009054906101000a900473ffffffffffffffffffffffffffffffffffffffff1673ffffffffffffffffffffffffffffffffffffffff163373ffffffffffffffffffffffffffffffffffffffff1614151561075457600080fd5b6003600581111561076157fe5b60028481548110151561077057fe5b906000526020600020906005020160030160009054906101000a900460ff16600581111561079a57fe5b1415156107a657600080fd5b600280848154811015156107b657fe5b906000526020600020906005020160030160006101000a81548160ff021916908360058111156107e257fe5b02179055507fbda7bc7c8123a85aa855c777d3191b2dc42bec38c45638643006fb84e76abf7a83836040518083815260200182600019166000191681526020019250505060405180910390a1505050565b8160028181548110151561084357fe5b906000526020600020906005020160010160009054906101000a900473ffffffffffffffffffffffffffffffffffffffff1673ffffffffffffffffffffffffffffffffffffffff163373ffffffffffffffffffffffffffffffffffffffff161415156108ae57600080fd5b600260058111156108bb57fe5b6002848154811015156108ca57fe5b906000526020600020906005020160030160009054906101000a900460ff1660058111156108f457fe5b14151561090057600080fd5b600360028481548110151561091157fe5b906000526020600020906005020160030160006101000a81548160ff0219169083600581111561093d57fe5b02179055507fae76720f3a5d319b91bc94d8a6c2e3096a4f3554c8cb897e3aedfced5824a10a83836040518083815260200182600019166000191681526020019250505060405180910390a1505050565b6109966112f3565b33816000019073ffffffffffffffffffffffffffffffffffffffff16908173ffffffffffffffffffffffffffffffffffffffff168152505084816020019073ffffffffffffffffffffffffffffffffffffffff16908173ffffffffffffffffffffffffffffffffffffffff16815250508381604001818152505060018302420181608001818152505060028054806001018281610a33919061135a565b9160005260206000209060050201600083909190915060008201518160000160006101000a81548173ffffffffffffffffffffffffffffffffffffffff021916908373ffffffffffffffffffffffffffffffffffffffff16021790555060208201518160010160006101000a81548173ffffffffffffffffffffffffffffffffffffffff021916908373ffffffffffffffffffffffffffffffffffffffff1602179055506040820151816002015560608201518160030160006101000a81548160ff02191690836005811115610b0557fe5b0217905550608082015181600401555050507fbde301cda1a53e4996e7061649145cdb878697bd928c5344ad670f867666807d600160028054905003338785604051808581526020018473ffffffffffffffffffffffffffffffffffffffff1673ffffffffffffffffffffffffffffffffffffffff1681526020018373ffffffffffffffffffffffffffffffffffffffff1673ffffffffffffffffffffffffffffffffffffffff168152602001826000191660001916815260200194505050505060405180910390a15050505050565b60005481565b600082600281815481101515610bed57fe5b906000526020600020906005020160000160009054906101000a900473ffffffffffffffffffffffffffffffffffffffff1673ffffffffffffffffffffffffffffffffffffffff163373ffffffffffffffffffffffffffffffffffffffff16141515610c5857600080fd5b600284815481101515610c6757fe5b9060005260206000209060050201915060026005811115610c8457fe5b8260030160009054906101000a900460ff166005811115610ca157fe5b148015610cb657506000548260040154014210155b1515610cc157600080fd5b60048260030160006101000a81548160ff02191690836005811115610ce257fe5b02179055503373ffffffffffffffffffffffffffffffffffffffff166108fc83600201549081150290604051600060405180830381858888f193505050501515610d2b57600080fd5b7f86e48a712d324364a79089a18be31e993ed6bda36550b789f988e7aaf9ed7cf884846040518083815260200182600019166000191681526020019250505060405180910390a150505050565b60006005811115610d8557fe5b600283815481101515610d9457fe5b906000526020600020906005020160030160009054906101000a900460ff166005811115610dbe57fe5b148015610deb5750600282815481101515610dd557fe5b9060005260206000209060050201600201543410155b1515610df657600080fd5b6000600283815481101515610e0757fe5b906000526020600020906005020160010160009054906101000a900473ffffffffffffffffffffffffffffffffffffffff1673ffffffffffffffffffffffffffffffffffffffff161415610eb55733600283815481101515610e6557fe5b906000526020600020906005020160010160006101000a81548173ffffffffffffffffffffffffffffffffffffffff021916908373ffffffffffffffffffffffffffffffffffffffff1602179055505b600282815481101515610ec457fe5b906000526020600020906005020160010160009054906101000a900473ffffffffffffffffffffffffffffffffffffffff1673ffffffffffffffffffffffffffffffffffffffff163373ffffffffffffffffffffffffffffffffffffffff16141515610f2f57600080fd5b7f6a5ee55c9df2daa4375d2b5e4ec8b9e5662f1863207bcbe6e38c6f5fe3c2430082826040518083815260200182600019166000191681526020019250505060405180910390a16001600283815481101515610f8757fe5b906000526020600020906005020160030160006101000a81548160ff02191690836005811115610fb357fe5b02179055505050565b600082600281815481101515610fce57fe5b906000526020600020906005020160000160009054906101000a900473ffffffffffffffffffffffffffffffffffffffff1673ffffffffffffffffffffffffffffffffffffffff163373ffffffffffffffffffffffffffffffffffffffff1614151561103957600080fd5b60028481548110151561104857fe5b906000526020600020906005020191506001600581111561106557fe5b8260030160009054906101000a900460ff16600581111561108257fe5b1480156110925750816004015442105b151561109d57600080fd5b60028260030160006101000a81548160ff021916908360058111156110be57fe5b02179055507fbbcce4bacf86438e14f37ed3f9c49f2f2a4e710dd64ba30805d096113bac7fad84846040518083815260200182600019166000191681526020019250505060405180910390a150505050565b60008260028181548110151561112257fe5b906000526020600020906005020160010160009054906101000a900473ffffffffffffffffffffffffffffffffffffffff1673ffffffffffffffffffffffffffffffffffffffff163373ffffffffffffffffffffffffffffffffffffffff1614151561118d57600080fd5b60028481548110151561119c57fe5b90600052602060002090600502019150600360058111156111b957fe5b8260030160009054906101000a900460ff1660058111156111d657fe5b1480156111ef5750600154600054836004015401014210155b8061123157506001600581111561120257fe5b8260030160009054906101000a900460ff16600581111561121f57fe5b148015611230575081600401544210155b5b151561123c57600080fd5b60058260030160006101000a81548160ff0219169083600581111561125d57fe5b02179055503373ffffffffffffffffffffffffffffffffffffffff166108fc83600201549081150290604051600060405180830381858888f1935050505015156112a657600080fd5b7fcb720f90f098c425fad2e9df556017c076f9bf7aefa096d1c904a06027ae046084846040518083815260200182600019166000191681526020019250505060405180910390a150505050565b60a060405190810160405280600073ffffffffffffffffffffffffffffffffffffffff168152602001600073ffffffffffffffffffffffffffffffffffffffff168152602001600081526020016000600581111561134d57fe5b8152602001600081525090565b81548183558181151161138757600502816005028360005260206000209182019101611386919061138c565b5b505050565b61141a91905b8082111561141657600080820160006101000a81549073ffffffffffffffffffffffffffffffffffffffff02191690556001820160006101000a81549073ffffffffffffffffffffffffffffffffffffffff021916905560028201600090556003820160006101000a81549060ff0219169055600482016000905550600501611392565b5090565b905600a165627a7a72305820c4472d875dc45884e20665a226157c0ed287c20afa3ee702e212d2417162bf730029",
  "source": "pragma solidity ^0.4.18;\n\n\n/**\n * @title PayableHandshake\n * @author Autonomous\n * @dev PayableHandshake allows payer to send funds for a handshake and payee withdraw funds if their deliver is accepted\n */\ncontract PayableHandshake {\n\n    enum S { Inited, Shaked, Accepted, Rejected, Done, Cancelled }\n\n    struct Payable {\n        address payee;\n        address payer;\n        uint value;\n        S state;\n        uint deadline;\n    }\n\n    uint public reviewWindow = 7 days;\n    uint public resolveWindow = 14 days;\n\n    Payable[] public pm;\n\n    /**\n    * Events\n    * @param hid ID of the handshake\n    * @param offchain record ID in offchain backend database (help us retrieve user information)\n    * @param payee address of the handshake's payee\n    * @param payer address of the handshake's payer\n    */\n    event __init(uint hid, address payee, address payer, bytes32 offchain);\n    event __shake(uint hid, bytes32 offchain);\n    event __deliver(uint hid, bytes32 offchain);\n    event __withdraw(uint hid, bytes32 offchain);\n    event __reject(uint hid, bytes32 offchain);\n    event __accept(uint hid, bytes32 offchain);\n    event __cancel(uint hid, bytes32 offchain);\n\n    //success if sender is payee\n    modifier onlyPayee(uint hid) {\n        require(msg.sender == pm[hid].payee);\n        _;\n    }\n\n    //success if sender is payer\n    modifier onlyPayer(uint hid) {\n        require(msg.sender == pm[hid].payer);\n        _;\n    }\n\n    /**\n    * @dev Initiate handshake by Payee\n    * @param payer payer address\n    * @param value funds required for this handshake\n    * @param deadline deadline for this handshake\n    * @param offchain record ID in offchain backend database\n    */\n    function init(\n        address payer,\n        uint value,\n        uint deadline,\n        bytes32 offchain\n    )\n        public\n    {\n        Payable memory p;\n        p.payee = msg.sender;\n        p.payer = payer;\n        p.value = value;\n        p.deadline = now + deadline * 1 seconds;\n        pm.push(p);\n        __init(pm.length - 1, msg.sender, payer, offchain);\n    }\n\n    /**\n    * @dev Initiate handshake by Payer\n    * @param payee payee address\n    */\n    function initByPayer(\n        address payee,\n        uint value,\n        uint deadline, // in seconds\n        bytes32 offchain\n    )\n        public\n        payable\n    {\n        require(msg.value >= value);\n        Payable memory p;\n        p.payee = payee;\n        p.payer = msg.sender;\n        p.value = value;\n        p.state = S.Shaked;\n        p.deadline = now + deadline * 1 seconds;\n        pm.push(p);\n        __init(pm.length - 1, payee, msg.sender, offchain);\n        __shake(pm.length - 1, offchain);\n    }\n\n    //Payer agree and make a handshake\n    function shake(uint hid, bytes32 offchain) public payable {\n        require(pm[hid].state == S.Inited && msg.value >= pm[hid].value);\n        if (pm[hid].payer == 0x0) pm[hid].payer = msg.sender;\n        require(msg.sender == pm[hid].payer);\n        __shake(hid, offchain);\n        pm[hid].state = S.Shaked;\n    }\n\n    //Payee delivered item\n    function deliver(uint hid, bytes32 offchain) public onlyPayee(hid) {\n        Payable storage p = pm[hid];\n        require(p.state == S.Shaked && now < p.deadline);\n        p.state = S.Accepted;\n        __deliver(hid, offchain);\n    }\n\n    //Payee withdraw funds from a handshake\n    function withdraw(uint hid, bytes32 offchain) public onlyPayee(hid) {\n        Payable storage p = pm[hid];\n        require(p.state == S.Accepted && now >= p.deadline + reviewWindow);\n        p.state = S.Done;\n\n        msg.sender.transfer(p.value);\n        __withdraw(hid, offchain);\n    }\n\n    //Payer reject the deliver\n    function reject(uint hid, bytes32 offchain) public onlyPayer(hid) {\n        require(pm[hid].state == S.Accepted);\n        pm[hid].state = S.Rejected;\n        __reject(hid, offchain);\n    }\n\n    //Payer accept the deliver\n    function accept(uint hid, bytes32 offchain) public onlyPayer(hid) {\n        require(pm[hid].state == S.Rejected);\n        pm[hid].state = S.Accepted;\n        __accept(hid, offchain);\n    }\n\n    //Payer cancel the handshake\n    function cancel(uint hid, bytes32 offchain) public onlyPayer(hid) {\n        Payable storage p = pm[hid];\n        require((p.state == S.Rejected && now >= p.deadline + reviewWindow + resolveWindow)\n                || (p.state == S.Shaked && now >= p.deadline));\n\n        p.state = S.Cancelled;\n        msg.sender.transfer(p.value);\n        __cancel(hid, offchain);\n    }\n}\n",
  "sourcePath": "/Workspace/robotbase/neuron/contracts/core/PayableHandshake.sol",
  "compiler": {
    "name": "solc",
    "version": "0.4.19+commit.c4cbbb05.Emscripten.clang"
  },
  "schemaVersion": "2.0.0",
  "updatedAt": "2018-04-13T07:15:43.659Z"
}